:1000000019C020C01FC01EC01DC01CC01BC01AC00C
:1000100019C018C017C016C015C014C013C012C034
:1000200011C010C00FC00EC00DC00CC00BC00AC064
:1000300009C008C011241FBECFEFCDBFDFE3DEBF74
:100040002ED05BC0DDCF88E080930104E0E0FAE0D1
:1000500081E1818381E080830895009741F00197D9
:10006000E1E4F3E03197F1F700000097C1F708955C
:100070000F931F93CF93DF938A01C0E0DAE021E171
:10008000298388A799A7CB01E8DF89818F7E89839F
:10009000C801E3DFDF91CF911F910F910895D3DF66
:1000A00025E580ED90E0215080409040E1F740E56B
:1000B00050E064E670E08CE498E0DADF40E550E080
:1000C00064E670E08BEC98E0D3DF40E550E064E656
:1000D00070E080EE99E0CCDF40E550E064E670E04F
:1000E00080EE99E0C5DF40E550E064E670E08BEC1F
:0E00F00098E0BEDF80E090E00895F894FFCF26
:00000001FF
