:1000000019C020C01FC01EC01DC01CC01BC01AC00C
:1000100019C018C017C016C015C014C013C012C034
:1000200011C010C00FC00EC00DC00CC00BC00AC064
:1000300009C008C011241FBECFEFCDBFDFE3DEBF74
:100040002ED0EDC2DDCF88E080930104E0E0FAE03D
:1000500081E1818381E080830895009741F00197D9
:10006000E1E4F3E03197F1F700000097C1F708955C
:100070000F931F93CF93DF938A01C0E0DAE021E171
:10008000298388A799A7CB01E8DF89818F7E89839F
:10009000C801E3DFDF91CF911F910F910895D3DF66
:1000A00025E580ED90E0215080409040E1F744E666
:1000B00050E064E670E08CE498E0DADF44E650E07B
:1000C00064E670E08BEC98E0D3DF44E650E064E651
:1000D00070E080EE99E0CCDF44E650E064E670E04A
:1000E00080EE99E0C5DF4EEE52E066E970E08BEC01
:1000F00098E0BEDF44E650E064E670E08AEC9EE003
:10010000B7DF44E650E064E670E08CE498E0B0DFEE
:1001100044E650E064E670E08BEC98E0A9DF44E64A
:1001200050E064E670E080EE99E0A2DF4CE251E03E
:1001300064E670E080EE99E09BDF44EF51E064E616
:1001400070E08BEC98E094DF4CE251E064E670E004
:1001500086E19BE08DDF44E650E064E670E080EEEF
:1001600099E086DF4EEE52E066E970E08AEC9EE0B0
:100170007FDF44E650E064E670E08AEC9EE078DFE2
:100180004CE251E064E670E080EE99E071DF44E615
:1001900050E064E670E08BEC98E06ADF44EF51E0F9
:1001A00064E670E08CE498E063DF44E650E064E6E7
:1001B00070E080EE99E05CDF4CE251E064E670E0D4
:1001C0008FEB9BE055DF44EF51E064E670E086E1A1
:1001D0009BE04EDF4CE251E064E670E080EE99E097
:1001E00047DF44E650E064E670E08AEC9EE040DFE2
:1001F00044E650E064E670E08AEC9EE039DF4EEEC3
:1002000052E066E970E08BEC98E032DF44E650E0C3
:1002100064E670E08CE498E02BDF44E650E064E6AE
:1002200070E08BEC98E024DF44E650E064E670E098
:1002300080EE99E01DDF44E650E064E670E080EE79
:1002400099E016DF4EEE52E066E970E08BEC98E044
:100250000FDF44E650E064E670E08AEC9EE008DFE1
:1002600044E650E064E670E08CE498E001DF44E6A8
:1002700050E064E670E08BEC98E0FADE44E650E093
:1002800064E670E080EE99E0F3DE44EF51E064E66E
:1002900070E080EE99E0ECDE44E650E064E670E069
:1002A0008BEC98E0E5DE44EF51E064E670E086E137
:1002B0009BE0DEDE44E650E064E670E080EE99E02C
:1002C000D7DE4EEE52E066E970E08AEC9EE0D0DECA
:1002D00044E650E06AEF70E080EE99E0C9DE44E663
:1002E00050E064E670E08BEC98E0C2DE4AEF50E04C
:1002F00068EC70E08CE498E0BBDE44E650E064E635
:1003000070E080EE99E0B4DE4AEF50E068EC70E017
:100310008FEB9BE0ADDE44E650E064E670E086E102
:100320009BE0A6DE4AEF50E068EC70E080EE99E0DA
:100330009FDE44E650E064E670E08AEC9EE098DEE2
:1003400044E650E064E670E086E19BE091DE44E63E
:1003500050E064E670E080EE99E08ADE44E650E02A
:1003600064E670E082E599E083DE44E650E064E60E
:1003700070E080EE99E07CDE44E650E064E670E0F8
:1003800086E19BE075DE4CE251E064E670E081E7D7
:100390009CE06EDE44E650E064E670E08AEC9EE0AD
:1003A00067DE44E650E064E670E087EF9DE060DEE3
:1003B0004AEF50E064E670E081E79CE059DE4AEFE6
:1003C00050E064E670E082E599E052DE44E650E0F9
:1003D00064E670E080EE99E04BDE44E650E064E6CF
:1003E00070E086E19BE044DE44E650E064E670E0C5
:1003F00086E19BE03DDE44E650E064E670E081E7A4
:100400009CE036DE44E650E064E670E086E19BE086
:100410002FDE44E650E064E670E081E79CE028DEF1
:100420004AEF50E064E670E081E79CE021DE44EFB3
:1004300051E066E970E081E79CE01ADE44E650E0B6
:1004400064E670E08AEC9EE013DE44E650E064E689
:1004500070E087EF9DE00CDE4AEF50E064E670E06C
:1004600081E79CE005DE4AEF50E064E670E082E55B
:1004700099E0FEDD44E650E064E670E080EE99E04D
:10048000F7DD44E650E064E670E082E599E0F0DDF7
:1004900044E650E064E670E080EE99E0E9DD44E691
:1004A00050E064E670E086E19BE0E2DD44E650E087
:1004B00064E670E086E19BE0DBDD44E650E064E664
:1004C00070E080EE99E0D4DD4AEF50E064E670E041
:1004D00082E599E0CDDD4AEF50E064E670E082E528
:1004E00099E0C6DD44E650E064E670E08CE498E014
:1004F000BFDD44E650E064E670E084E697E0B8DDF6
:1005000044E650E064E670E08BEF96E0B1DD44E64F
:1005100050E064E670E08BEF96E0AADD4AEF50E031
:1005200064E670E082E599E0A3DD4AEF50E064E61E
:1005300070E080EE99E09CDD44E650E064E670E017
:1005400082E599E095DD44E650E064E670E08CE4F5
:1005500098E08EDD44E650E064E670E084E697E0E3
:1005600087DD44E650E064E670E084E697E080DDF5
:100570004AEF50E064E670E080EE99E079DD4AEF02
:1005800050E064E670E086E19BE072DD44E650E016
:1005900064E670E086E19BE06BDD44E650E064E6F3
:1005A00070E081E79CE064DD44E650E064E670E0E2
:1005B00086E19BE05DDD44E650E064E670E082E5C4
:1005C00099E056DD44E650E064E670E082E599E0AB
:1005D0004FDD44E650E064E670E080EE99E048DDEF
:1005E00044E650E064E670E08AEC9EE041DD44E6DB
:1005F00050E064E670E080EE99E03ADD44E650E0D9
:1006000064E670E08BEC98E033DD44E650E064E6AD
:1006100070E08BEC98E02CDD80E090E00895F89499
:02062000FFCF0A
:00000001FF
